:100000000C942E000C944B000C944B000C944B0061
:100010000C944B000C944B000C944B000C944B0034
:100020000C944B000C944B000C944B000C944B0024
:100030000C944B000C944B000C944B000C944B0014
:100040000C944B000C944B000C944B000C944B0004
:100050000C944B000C944B000C944B0011241FBECD
:10006000CFEFD4E0DEBFCDBF11E0A0E0B1E0E2E829
:10007000F3E002C005900D92A431B107D9F721E059
:10008000A4E1B1E001C01D92A431B207E1F70E94E2
:10009000FC000C94BF010C94000087EB8093E500FA
:1000A00087E08093E6008FE08093E70080EC809308
:1000B000E40008956330710581059105E4F0DC01E9
:1000C000CB0181709927AA27B078BB2354F40197FC
:1000D000A109B1098E6F9F6FAF6FBF6F0196A11D10
:1000E000B11D31E020E0892B8A2B8B2B09F430E005
:1000F000832F922F089508956630710508F042C04D
:10010000A82FB0E0AA0FBB1FA050BF4F4D915C912C
:1001100060FF03C0A4E03FE002C0A0E030EF623027
:10012000710538F1CB010297029730F164507109E3
:100130006230710518F5EEEEF0E020C08081232FCB
:100140002823CA018F7099270A2E02C0880F991F91
:100150000A94E2F7822B80835595479555954795EC
:10016000559547955595479535966E177F0731F705
:100170000895ECEEF0E002C0EDEEF0E0BF016C5E41
:100180007F4FDCCF08958F929F92AF92BF92EF92F4
:10019000FF920F931F93CF93DF931616170618063F
:1001A0001906FCF4C5E0D0E00F2EFAE08F2E912C5A
:1001B000A12CB12CF02DA50194010E947E01E22E0C
:1001C000F32E042F152F862FBE010E947C0021974D
:1001D0006E2D7F2D802F912F1616170618061906E3
:1001E00054F3DF91CF911F910F91FF90EF90BF904B
:1001F000AF909F908F900895E1E6F0E080E88083D3
:1002000010820E944D000E940B01FDCF84E080937C
:1002100081002F9A08950E940601812C912C54018F
:100220008394C0E0D0E000E010E0E12CF12C0F2E30
:10023000F4E8CF2ED12CF02D0F2EF4EF6F2E712C71
:10024000F02D33243394212C0F2EFFEE4F2E512C02
:10025000F02DC501B4010E945A00892B21F0C5017F
:10026000B4010E94C300F601808191818E159F0523
:1002700098F00115110581F4FEEEEF1AF5E8FF0A7A
:10028000F3018081882321F0108201E010E004C096
:10029000F301308201E010E0F601808191818E153A
:1002A0009F0510F4022D10E01F991FC02097B1F494
:1002B000F2018081811108C03082E9EFF0E0108204
:1002C000F1E0CF2FD82F14C0F2011082E9EFF0E057
:1002D0003082F1E0CF2F80E0D82F0AC0832D219704
:1002E00009F080E0C82FD0E003C0C22DF0E0DF2F7E
:1002F0008FEF881A980AA80AB80AABCF052E97FB89
:100300001EF400940E94950157FD07D00E949D01A4
:1003100007FC03D04EF40C94950150954095309510
:1003200021953F4F4F4F5F4F089590958095709561
:1003300061957F4F8F4F9F4F0895A1E21A2EAA1B00
:10034000BB1BFD010DC0AA1FBB1FEE1FFF1FA21785
:10035000B307E407F50720F0A21BB30BE40BF50B82
:10036000661F771F881F991F1A9469F7609570950B
:10037000809590959B01AC01BD01CF010895F89443
:02038000FFCFAD
:1003820051151001111E111B500B411B411F110170
:04039200511F511B8B
:00000001FF
